:020000040800F2
:1000000050EB01205502000899220008F120000859
:1000100095220008910400088129000800000000D2
:100020000000000000000000000000009D0100082A
:100030002D05000800000000F1010008ED22000875
:100040006F0200086F0200086F0200086F020008CC
:100050006F0200086F0200086F0200086F020008BC
:100060006F0200086F0200086F0200086F020008AC
:100070006F0200086F0200086F0200086F0200089C
:100080006F0200086F0200086F0200086F0200088C
:100090006F0200086F0200086F0200086F0200087C
:1000A0006F0200086F0200086F0200086F0200086C
:1000B0006F0200086F0200086F0200086F0200085C
:1000C0006F0200086F0200086F0200086F0200084C
:1000D0006F020008712900086F0200086F02000813
:1000E0006F0200086F0200086F0200086F0200082C
:1000F0006F0200086F0200086F0200086F0200081C
:100100006F0200086F0200086F0200086F0200080B
:100110006F0200086F0200086F0200086F020008FB
:100120006F0200086F0200086F0200086F020008EB
:100130006F020008BD0500086F0200086F0200088A
:100140006F0200086F0200086F0200086F020008CB
:100150006F0200086F0200086F0200086F020008BB
:100160006F0200086F0200086F0200086F020008AB
:100170006F0200086F0200086F0200080000000014
:100180006F0200086F020008DFF80CD000F0F0F8F2
:1001900000480047D58E000850EB01202A4B196813
:1001A0000868B0E8F04F80F30988BFF36F8F4FF015
:1001B000000080F3118870470000000006480068C6
:1001C000006880F3088862B661B6BFF34F8FBFF353
:1001D0006F8F00DF00BF00BF08ED00E0DFF80C000C
:1001E000016841F470010160704700BF88ED00E0D4
:1001F000EFF30980BFF36F8F134B1A681EF0100FD7
:1002000008BF20ED108A20E9F04F106008B44FF0CD
:10021000500080F31188BFF34F8FBFF36F8F12F040
:10022000DFFA4FF0000080F3118808BC19680868F5
:10023000B0E8F04F1EF0100F08BFB0EC108A80F34A
:100240000988BFF36F8F704740010020EFF30580EE
:10025000704700000648804706480047FEE7FEE773
:10026000FEE7FEE7FEE7FEE7FEE7FEE7FEE7FEE766
:10027000E1230008890100080649074A086850433D
:1002800043F2390210440860400870470149086091
:1002900070470000900100206D4EC64140EA010306
:1002A0009B0703D009E008C9121F08C0042AFAD22C
:1002B00003E011F8013B00F8013B521EF9D27047F0
:1002C000D2B201E000F8012B491EFBD27047002298
:1002D000F6E710B513460A4604461946FFF7F0FF45
:1002E000204610BD421C10F8011B0029FBD1801ACA
:1002F000704730B504460020034600E05B1C934283
:1003000003D2E05CCD5C401BF8D030BD2DE9F05F3E
:100310000546002092469B46884606468146402474
:100320001BE0284641464746224600F042F8534625
:100330005A46C01A914110D311461846224600F081
:1003400029F82D1A67EB01084F46224601200021AB
:1003500000F020F817EB00094E41201EA4F1010423
:10036000DFDC484631462A464346BDE8F09F0000A0
:10037000064C074D06E0E06840F0010394E80700F2
:1003800098471034AC42F6D3FFF702FF2C3C01082B
:100390004C3C0108202A04DB203A00FA02F100203C
:1003A00070479140C2F1200320FA03F319439040B3
:1003B0007047202A04DB203A21FA02F0002170471E
:1003C00021FA02F3D040C2F12002914008431946BD
:1003D000704730B58C1810F8012B12F00F0301D1C3
:1003E00010F8013B120906D110F8012B03E010F8B8
:1003F000015B01F8015B5B1EF9D101E001F8013BF3
:10040000521EFBD1A142E6D3002030BD1CB51048DE
:10041000012100234A02CDE900100EA1114812F07B
:1004200081FE1148022100230A02CDE900100FA12C
:10043000114812F077FE1148032100234FF4007297
:10044000CDE900100EA1114812F06CFE1CBD000099
:1004500014000020765461736B5461736B5573659F
:10046000724946006D280108180000207654617317
:100470006B4C656400000000B52501081C000020DD
:10048000765461736B4D736750726F00D925010804
:1004900000BFFEE70EB5214C00BF214800780128BF
:1004A00004D002280DD0052832D12AE00020606057
:1004B000A060E060204604F0D7FA022018490870D6
:1004C00027E0204604F0F2FB18B10320144908701D
:1004D00016E0256AA87A042812DD04201049087065
:1004E000204604F07DFB0F4802906FF07F400190A2
:1004F0000D4800906B4601AA02A920460AF07FF839
:1005000007E0204604F06CFB00200549087000E07D
:1005100000BF00BFFA2012F01FF8BEE798010020CC
:1005200010000020C0A80169C0A80101704701683F
:1005300001F58051896941F00202016801F580519D
:100540008A617047016801F58051896941F4005260
:10055000016801F580518A617047000008B50849BB
:100560000968C9084FF47A72B1FBF2F14143009176
:1005700000BF00BF00994A1E00920029F9D108BDB2
:100580002400002038B5044600200090206800F5C3
:100590008050806940F48011206800F580508161AE
:1005A000206800F58050806900900120FFF7D6FF99
:1005B0000099206800F58050816138BD10B502486F
:1005C00000F067FA10BD0000D401002030B50346EA
:1005D0001479557944EA0520084C0C442064D478F9
:1005E0002406957844EA0544557844EA05241578AC
:1005F00044EA0500014C0C44606430BD00800240B8
:1006000070B5AEB004460E46002526B14FF4006129
:10061000E160C900A1600020119012901390149025
:1006200015901690E06918B94FF48060179001E0BA
:10063000002017904FF400701890002019901A9025
:100640001B901C901D9040201E9000201F90209019
:10065000219022902390249025902690802027900E
:100660000020289029902A902B902C902D90206883
:10067000056871480540DDE91101084313990843F5
:1006800014990843A168084315990843169908432B
:10069000E1680843179908431899084319990843D2
:1006A0001A9908431B990843054320680560206890
:1006B0000568012000F002F920680560DDE91C01F1
:1006C00008431E9908431F9908432099084321991C
:1006D0000843229908432399084321684860206809
:1006E0004568012000F0EAF82068456024982168F8
:1006F000886025982168C860206885694FF6417038
:100700000540DDE9261040EA01402899084329996F
:1007100008432A9908432B990843054320688561BB
:1007200020688569012000F0C9F820688561DDE94D
:100730002C0108432168C8612068C569012000F0C8
:10074000BDF82068C561002001904FF00070029054
:10075000002003904FF400100490002005900690B4
:100760000790089004200990C0050A9040120B9051
:1007700080010C9040120D9080200E9000200F9070
:100780001090206800F5805085692C480540DDE90F
:100790000101084303990843049908430599084354
:1007A000069908430799084308990843099908439B
:1007B0000543206800F580508561206800F5805071
:1007C0008569012000F07AF8206800F58050856185
:1007D000DDE90A0108430C9908430D9908430E9975
:1007E00008430F9940EA81001099084340F4000142
:1007F000206800F580500160206800F58050056891
:10080000012000F05BF8206800F580500560A069C9
:10081000012809D1206800F58050C06908490843C3
:10082000216801F58051C861002120466269FFF707
:10083000CDFE2EB070BD00000F8120FF233FDEF8FB
:100840004000010038B50446002000902068006890
:1008500040F00400216808602068006800900120D2
:10086000FFF77CFE00982168086038BD38B5044663
:10087000002000902068006840F0080021680860AF
:100880002068006800900120FFF768FE009821684A
:10089000086038BD014691F83500022803D0802059
:1008A000486501207047052081F835000868006818
:1008B00020F001000A6810600020F3E701B50098FD
:1008C00011F04AFE08BD70B504460D4616460022DA
:1008D00000BF94F84500012801D1022070BD01201D
:1008E00084F8450000BF022084F84400A56200227D
:1008F0001FE005EB42114FF00040086044F2F45055
:100900004860C2EBC21000EB400006EB800088603C
:10091000A069012803D1486820F000404860581EB3
:10092000904204D905EB42102030C86000E0CD6051
:10093000521C9A42DDD3206800F58050C56001202A
:1009400084F8440000BF002084F8450000BF00BFC9
:10095000C4E770B504460D461646002200BF94F861
:100960004500012801D1022070BD012084F8450016
:1009700000BF022084F84400E56200221BE005EB82
:1009800042114FF480100860C2EBC21000EB40002F
:1009900006EB80008860E06918B9086840F4400000
:1009A0000860581E904204D905EB42102030C86000
:1009B00000E0CD60521C9A42E1D3206800F58050DF
:1009C0000561012084F8440000BF002084F8450040
:1009D00000BF00BFC8E770470146002200BF91F882
:1009E0004500012801D102207047012081F845000F
:1009F00000BF022081F844003AE0521C886A006877
:100A000000F44070B0F5007F07D1886A08630123C5
:100A10008B63886AC06888622AE0886A006800F48C
:100A2000407030B9886B401C8863886AC0688862EF
:100A30001EE08B6A4B63886B401C8863886B0128BF
:100A400001D1886A0863886A0068C0F30D40001FFE
:100A5000C863086B83680B64886AC0688862012079
:100A600081F8440000BF002081F8450000BFBBE7CB
:100A7000886A006800F0004008B9052ABDD301204B
:100A800081F8440000BF002081F8450000BF01202C
:100A9000AAE710B50446206800F58050406900F0D0
:100AA000400040280FD1204600F064FA4021206821
:100AB00000F580504161012084F8440000BF00200F
:100AC00084F8450016E0206800F58050406900F089
:100AD000010078B1204600F021FB0121206800F5DB
:100AE00080504161012084F8440000BF002084F858
:100AF000450000BF4FF48031206800F5805041610F
:100B0000206800F58050406900F40040B0F5004FC7
:100B100010D12046FFF75FFF4FF40041206800F539
:100B200080504161012084F8440000BF002084F817
:100B3000450000BF10BD00002DE9FC410446002522
:100B4000002001909D4E0027804614B90120BDE889
:100B5000FC8194F8440028B9002084F84500204620
:100B600000F03AF900BF002000909548006840F47A
:100B70008040934908600846006800F48040009077
:100B800000BF00BF8F48006820F400008D49086056
:100B900008460068216A08438A490860206800F511
:100BA0008050006840F00101206800F5805001602D
:100BB00000F008FC07460FE000F004FCC01BB0F595
:100BC000FA7F09D9032084F8440000BF002084F88C
:100BD000450000BF0320BAE7206800F58050006898
:100BE00000F001000028E7D12068056925F01C0508
:100BF00000F09AFD06467448864205D37348864243
:100C000002D245F008051AE07048864205D36B48C9
:100C1000864202D245F00C0511E06848864203D3B3
:100C20006B48864200D20AE06948864205D369488B
:100C3000864202D245F0040501E045F01005206827
:100C400005614FF400420021204600F068FA48B1E7
:100C50004FF0010841462046FFF7D2FC012084F8FE
:100C6000440074E7FF20FFF729FE6068002871D078
:100C700000F0A8FB074600BF01AA0121204600F0B2
:100C80002FF900F09FFBC01B41F2883188420FD939
:100C90004FF0010841462046FFF7B2FC012084F8DE
:100CA000440000BF002084F8450000BF03204EE749
:100CB000019800F004000428DED1820200212046C1
:100CC00000F02DFA48B14FF0010841462046FFF7E9
:100CD00097FC012084F8440039E700F073FB0746D5
:100CE00000BF01AA0121204600F0FAF800F06AFBDB
:100CF000C01B41F2883188420FD94FF001084146AC
:100D00002046FFF77DFC012084F8440000BF00204E
:100D100084F8450000BF032019E7019800F0200087
:100D20002028DED101AA1F21204600F0D9F848B1C1
:100D30004FF0010841462046FFF762FC012084F88D
:100D4000440004E7019800F0100020B14FF4006166
:100D5000E16002E00DE00021E160019800F0040094
:100D6000042802D10021A1601EE04FF48041A1605F
:100D70001AE0E068C0F3CF00A168C1F34F0140EA78
:100D800001020021204600F0CAF948B14FF00108E5
:100D900041462046FFF734FC012084F84400D6E6A3
:100DA00040F6FF70FFF78AFD41462046FFF728FC1A
:100DB000012084F844000020C9E600000087930366
:100DC0004438024004380140002D3101C00E1602A3
:100DD00000E1F50580D1F00810B586B004463A4927
:100DE000206888426DD100BF00BF002000903748C6
:100DF000006840F00070354908600846006800F05F
:100E00000070009000BF00BF00BF002000900846A7
:100E1000006840F0806008600846006800F080606C
:100E2000009000BF00BF00BF00200090084600688F
:100E300040F0006008600846006800F00060009024
:100E400000BF00BF00BF32200190022002900020AE
:100E50000390032004900B20059001A91C4800F08A
:100E6000A7F9862001900220029000200390032021
:100E700004900B20059001A9164800F099F94FF451
:100E8000D0400190022002900020039003200490A3
:100E90000B20059001A9104800F08AF90820019064
:100EA0000120029000200390049001A90B4800F05B
:100EB0007FF9002207213D2000F0FCFA3D2000F0E0
:100EC000ECFA06B010BD000000800240303802404D
:100ED000000802400000024000180240000C0240DE
:100EE0002DE9F04104460E4617460025A84694F821
:100EF0004400822802D10220BDE8F081822084F8DB
:100F000044002068056905F01C05208A4FF47841EB
:100F100001EAC0200543481100EA8610054325F088
:100F2000020545F001052068056100F04BFA804696
:100F300012E000F047FAA0EB0800B0F5803F09D3BB
:100F4000012084F8440000BF002084F8450000BF61
:100F50000320D1E72068056905F001000028E8D1E9
:100F60002068406980B23860012084F84400002085
:100F7000C2E7000038B504460020009069460248E8
:100F8000006812F019F838BD1001002010B50446B1
:100F900000BF94F84500012801D1022010BD0120B6
:100FA00084F8450000BF022084F844002046FFF783
:100FB0005DFC2046FFF746FC2046FFF7E3FA20469B
:100FC000FFF7C0FA2046FFF7B2FA012084F8440088
:100FD00000BF002084F8450000BF00BFDEE770B509
:100FE000024600230025002400BF92F84500012896
:100FF00001D1022070BD012082F8450000BF02200F
:1010000082F8440049B9012082F8440000BF002062
:1010100082F8450000BF0120ECE7D06A006800F0CC
:10102000004048B1122082F8440000BF002082F83E
:10103000450000BF0120DDE740F2F450814208D9AD
:10104000B1FBF0F3B1FBF0F600FB161010B15B1C26
:1010500000E00123012B13D1D06A006840F040501A
:10106000D66A3060C1F30C00D66A7060D06A00683E
:1010700040F00040D66A3060D06AC068D06232E08A
:1010800000242EE0D06A006820F04050D66A30601C
:101090002CB9D06A006840F08050D66A306040F2C7
:1010A000F450D66A7060581EA04210D1D06A006811
:1010B00040F00050D66A3060581EC0EBC01000EB04
:1010C0004000A1EB8005C5F30C00D66A7060D06AC1
:1010D000006840F00040D66A3060D06AC068D062D4
:1010E000641C9C42CED3106800F58050406900F02B
:1010F000040048B10426106800F5805046610026BF
:10110000106800F580504660012082F8440000BF5E
:10111000002082F8450000BF00BF6BE770472DE953
:10112000F04104460E4617460025A84694F84400B0
:10113000422802D10220BDE8F081422084F8440018
:101140002068056905F01C05208A4FF4784101EA02
:10115000C0200543481100EA8610054345F002050A
:1011600045F00105B8B2216848612068056100F0CA
:1011700029F9804612E000F025F9A0EB0800B0F54F
:10118000803F09D3012084F8440000BF002084F888
:10119000450000BF0320CEE72068056905F0010087
:1011A0000028E8D1012084F844000020C3E70000B3
:1011B000F8B502460B460025002400200021DCE0A3
:1011C000012606FA01F51E6806EA0504AC4273D151
:1011D0005E68022E02D05E68122E13D1CF0802F193
:1011E000200656F827004E07F70E0F26BE40B043E4
:1011F0004F07FF0E1E69BE403043CF0802F12006A4
:1012000046F8270010684F000326BE40B0431E7901
:1012100006F003064F00BE40304310605E68012EAA
:1012200008D05E68022E05D05E68112E02D05E687E
:10123000122E13D190684F000326BE40B0434F00DA
:10124000DE68BE4030439060506801268E40B04357
:101250001E79C6F300168E4030435060D0684F00B0
:101260000326BE40B0434F009E68BE403043D0606E
:101270005E6806F08056B6F1805F7DD100BF002623
:101280000096404E366846F480463E4F3E603E46ED
:10129000366806F48046009600BF00BF3A4E8F08BD
:1012A00056F827008E07370F0F26BE40B043374E43
:1012B000B24202D1002624E05EE0354EB24201D1B6
:1012C00001261EE0334EB24201D1022619E0324E11
:1012D000B24201D1032614E0304EB24201D10426BD
:1012E0000FE02F4EB24201D105260AE02D4EB24248
:1012F00001D1062605E02C4EB24201D1072600E0BE
:1013000008268F073F0FBE4030431F4E8F0846F818
:101310002700264E3068A0435E6806F48036B6F596
:10132000803F00D12043214E3060361D3068A043FD
:101330005E6806F40036B6F5003F00D120431B4E30
:10134000361D3060361D3068A0435E6806F4801696
:10135000B6F5801F00D12043144E08363060361D8C
:101360003068A0435E6806F40016B6F5001F00D191
:1013700020430E4E0C363060491C1029FFF420AF7C
:10138000F8BD000044380240083801400000024027
:101390000004024000080240000C0240001002401D
:1013A0000014024000180240001C0240003C0140B2
:1013B00042694A40426170470AB1816101E00B0411
:1013C00083617047014800687047000000000020FA
:1013D00002480068401C0149086070470000002076
:1013E00010B50D48006840F400700B4908600846CD
:1013F000006840F4806008600846006840F480702F
:101400000860032000F094F8002000F007F800F0D6
:1014100019F8002010BD0000003C024070B50446E1
:10142000074800684FF47A71B0FBF1F5284600F0E8
:1014300041FC00222146501E00F03CF8002070BD07
:101440002400002010B5032000F072F8002211469D
:101450006FF00B0000F02EF8002211466FF00A002A
:1014600000F028F8002211466FF0090000F022F881
:1014700000221146501F00F01DF800221146101FD7
:1014800000F018F800221146901E00F013F8002218
:101490001146501E00F00EF810BD00BF00F01F02F4
:1014A000012191404209920002F1E022C2F80011AC
:1014B00000BF70472DE9F05F80460D4616460027B5
:1014C00000F0ECFE074639462A46334601F0070095
:1014D000C0F1070ABAF1040F02D94FF0040A01E083
:1014E000C0F1070AD14600F1040ABAF1070F02D28F
:1014F0004FF0000A01E0A0F1030AD4464FF0010AC0
:101500000AFA09FAAAF1010A0AEA020A0AFA0CFA24
:101510004FF0010B0BFA0CFBABF1010B0BEA030BC9
:101520004AEA0B042146404600F0C0FEBDE8F09FA9
:1015300000BF00F00702064B19684FF6FF03194081
:10154000044B0B4343EA0221014B196000BF704773
:101550000CED00E00000FA0570B504460D460026CB
:101560006D48006800F00F00A84209D26A490D706A
:101570000846006800F00F00A84201D0012070BDAD
:10158000207800F00200022807D16448006820F0AB
:10159000F000A168084361490860207800F001006C
:1015A000002877D06068012807D15C4808380068B7
:1015B000C0F34040B8B90120E1E76068022802D0DA
:1015C0006068032807D1554808380068C0F34060B8
:1015D00048B90120D3E7514808380068C0F34000FB
:1015E00008B90120CBE74D48006820F0030061688E
:1015F00008434A490860FFF7E5FE0646606801288F
:1016000010D108E0FFF7DEFE801B41F288318842EE
:1016100001D90320B3E74148006800F00C0004281A
:10162000F0D137E06068022810D108E0FFF7CAFE69
:10163000801B41F28831884201D903209FE7374857
:10164000006800F00C000828F0D123E0606803284F
:1016500010D108E0FFF7B6FE801B41F288318842C6
:1016600001D903208BE72D48006800F00C000C28FE
:10167000F0D10FE008E0FFF7A5FE801B41F28831B2
:10168000884201D903207AE72448006800F00C0062
:101690000028F0D12048006800F00F00A84209D9C6
:1016A0001D490D700846006800F00F00A84201D0E7
:1016B000012064E7207800F00400042807D11748CF
:1016C000006820F4E050E16808431449086020787D
:1016D00000F00800082808D11048006820F4604095
:1016E000216940EAC1000D49086000F04FF80B493C
:1016F000096801F0F001F02292FAA2F2B2FA82F245
:10170000D140074A515CC840064908600020FFF7F5
:1017100085FE002033E70000003C0240083802400C
:101720003836010824000020014800687047000096
:101730002400002000B5FFF7F7FF0749096801F40E
:10174000E0514FF4E05292FAA2F2B2FA82F2D140A2
:10175000024A515CC84000BD0838024048360108C2
:1017600000B5FFF7E1FF0749096801F460414FF454
:10177000604292FAA2F2B2FA82F2D140024A515C7D
:10178000C84000BD083802404836010870B5002145
:10179000002200230020274C246804F00C0424B10C
:1017A000042C04D0082C41D103E0234840E0234816
:1017B0003EE0204C241F246804F03F011D4C241FF0
:1017C000246804F4800484B11C4CB4FBF1F5194C7A
:1017D000241F246847F6C076344096FAA6F6B6FA77
:1017E00086F6F44005FB04F20FE0134CB4FBF1F570
:1017F000104C241F246847F6C076344096FAA6F6AB
:10180000B6FA86F6F44005FB04F20A4C241F24685D
:1018100004F440344FF4403595FAA5F5B5FA85F552
:10182000EC40641C6300B2FBF3F001E0024800BF2F
:1018300000BF70BD083802400024F40000127A0096
:1018400038B504460025207800F00100002874D047
:10185000F748006800F00C0004280DD0F448006838
:1018600000F00C00082813D1F148001F006800F4B4
:101870008000B0F5800F0BD1ED4808380068C0F348
:101880004040002859D06068002856D1012038BD5A
:1018900000BF6068B0F5803F08D1E54808380068AF
:1018A00040F48030E249083908601EE06068B0F515
:1018B000A02F0DD1DE480838006840F48020DC49B4
:1018C000083908600846006840F4803008600CE081
:1018D000D7480838006820F48030D54908390860B6
:1018E0000846006820F48020086000BF606890B15E
:1018F000FFF768FD054606E0FFF764FD401B64281E
:1019000001D90320C3E7CA4808380068C0F3404043
:101910000028F1D011E0FFF755FD054606E0FFF77E
:1019200051FD401B642801D90320B0E7C0480838A6
:101930000068C0F340400028F1D1207800F0020098
:10194000022869D1BA48006800F00C0058B1B848C4
:10195000006800F00C00082821D1B548001F00687D
:1019600000F48000D8B9B24808380068C0F34000DD
:1019700020B1E068012801D0012088E7AC48083890
:10198000006820F0F800F82292FAA2F2B2FA82F28D
:10199000216991400843A649083908603CE0E068A5
:1019A00028B30120A3490860FFF70CFD054606E0B7
:1019B000FFF708FD401B022801D9032067E79C4878
:1019C00008380068C0F340000028F1D09848083873
:1019D000006820F0F800F82292FAA2F2B2FA82F23D
:1019E00021699140084392490839086014E00020B9
:1019F00090490860FFF7E6FC054606E0FFF7E2FCC9
:101A0000401B022801D9032041E7894808380068B3
:101A1000C0F340000028F1D1207800F00800082829
:101A20002CD16069A8B1012083490860FFF7CAFC86
:101A3000054606E0FFF7C6FC401B022801D903203B
:101A400025E77B486C300068C0F340000028F1D0E7
:101A500014E0002078490860FFF7B4FC054606E072
:101A6000FFF7B0FC401B022801D903200FE77048A4
:101A70006C300068C0F340000028F1D1207800F0FD
:101A8000040004287FD100BF00200090684838304F
:101A9000006840F0805066493831086008460068A8
:101AA00000F08050009000BF00BF6448006840F420
:101AB000807062490860FFF785FC054606E0FFF785
:101AC00081FC401B022801D90320E0E65B48006846
:101AD00000F480700028F2D000BFA068012808D16F
:101AE00053486830006840F001005149683108608F
:101AF0001DE0A06805280DD14D486830006840F011
:101B000004004B49683108600846006840F0010055
:101B100008600CE046486830006820F00100444945
:101B2000683108600846006820F00400086000BFC3
:101B3000A068A0B1FFF746FC054608E0FFF742FCAD
:101B4000401B41F28831884201D903209FE6384882
:101B500068300068C0F340000028EFD013E0FFF7C2
:101B600031FC054608E0FFF72DFC401B41F28831AF
:101B7000884201D903208AE62D4868300068C0F306
:101B800040000028EFD1A069F0B32948006800F0B8
:101B90000C00082871D0A069022858D100202549DE
:101BA0000866FFF70FFC054606E0FFF70BFC401B3D
:101BB000022801D903206AE61D4808380068C0F3EE
:101BC00040600028F1D1D4E90701084347F6C0720C
:101BD00092FAA2F2B2FA82F2616A914008430122BB
:101BE000A16AC2EB51014FF4403292FAA2F2B2FA6A
:101BF00082F2914008434FF0706292FAA2F2B2FA78
:101C000082F2E16A914000E039E008430849091F87
:101C10000860012007490866FFF7D4FB05460FE07E
:101C2000FFF7D0FB401B02280AD903202FE6000053
:101C30000838024000004742800E474200700040D2
:101C400010480068C0F340600028E9D017E0002089
:101C50000D490866FFF7B6FB054606E0FFF7B2FB45
:101C6000401B022801D9032011E606480068C0F392
:101C700040600028F2D102E0FFE7012007E60020E3
:101C800005E600000038024000004742042808D161
:101C90004FF0E021096941F004014FF0E0221161A9
:101CA00007E04FF0E021096921F004014FF0E02244
:101CB0001161704770B504462546681EB0F1807FFB
:101CC00001D301200FE0681E4FF0E02148610F2191
:101CD0004FF0FF3000F0EAFA00204FF0E021886179
:101CE00007200861002070BD704700002DE9F04713
:101CF0000446206805682068C668206847694FF078
:101D00000008C14605F00F08B8F1000F0AD105F030
:101D1000200038B106F0200020B1204600F0BCFBC6
:101D2000BDE8F087B8F1000F6DD007F0010018B9D9
:101D300006F49070002866D005F0010030B106F47A
:101D4000807018B1E06B40F00100E06305F0040022
:101D500030B107F0010018B1E06B40F00200E06321
:101D600005F0020030B107F0010018B1E06B40F05F
:101D70000400E06305F0080030B107F0010018B17D
:101D8000E06B40F00800E063E06B68B305F0200012
:101D900028B106F0200010B1204600F07DFB20683D
:101DA0004069C0F38019E06B00F0080010B9B9F188
:101DB000000F22D0204600F04FFB2068406900F061
:101DC0004000B0B12068406920F0400021684861BF
:101DD000606B50B11748616B0865606BFEF75AFD88
:101DE00010B1606B016D88470CE02046FFF77CFF67
:101DF00008E02046FFF778FF04E02046FFF774FF75
:101E00000020E0638CE705F0800030B106F0800030
:101E100018B1204600F042FD82E705F0400030B1E5
:101E200006F0400018B1204600F026FB78E700BF1E
:101E300076E700004524000810B504460CB90120DF
:101E400010BDA06900B100E000BF94F8390028B9C6
:101E5000002084F83800204600F028F8242084F878
:101E600039002068C06820F400502168C86020460E
:101E700000F060FB2068006920F490402168086150
:101E80002068406920F02A00216848612068C06805
:101E900040F400502168C8600020E063202084F8EE
:101EA000390084F83A000020CAE7000010B586B077
:101EB00004461249206888421ED100BF00200090CD
:101EC0000F48006840F010000D490860084600689F
:101ED00000F01000009000BF00BF4FF4C060019000
:101EE0000220029001200390032004900720059017
:101EF00001A90448FFF75CF906B010BD00100140CD
:101F0000443802400000024010B5034693F83A00FE
:101F1000202829D101B10AB9012010BD00BF93F8D2
:101F20003800012801D10220F7E7012083F83800AA
:101F300000BF99629A85DA850020D863222083F851
:101F40003A0000BF002083F8380000BF18684069DD
:101F500040F001001C6860611868C06840F490702F
:101F60001C68E0600020D8E70220D6E710B50446E0
:101F7000012207490748FFF7C7FF07488078FF2875
:101F800004DA03480178044800F00CFD10BD00009D
:101F90001C02002054060020AF0400202DE9F84365
:101FA00004460D4616461F464FF0000994F83900C6
:101FB00020285CD105B116B90120BDE8F88300BF27
:101FC00094F83800012801D10220F6E7012084F8B6
:101FD000380000BF0020E063212084F83900FFF7BB
:101FE000F1F98146A684E6842BE0E08C401EE08473
:101FF000A068B0F5805F16D14B46002280212046B4
:10200000009700F07FFC08B10320D6E7A846B8F897
:102010000000C0F3080021684860206908B9AD1CC1
:102020000FE06D1C0DE04B460022802120460097FA
:1020300000F068FC08B10320BFE715F8010B216828
:102040004860E08C0028D0D14B4600224021204639
:10205000009700F057FC08B10320AEE7202084F879
:10206000390000BF002084F8380000BFA5E7022037
:10207000A3E710B5034693F83900202823D101B116
:102080000AB9012010BD00BF93F83800012801D122
:102090000220F7E7012083F8380000BF19629A8414
:1020A000DA840020D863212083F8390000BF0020A3
:1020B00083F8380000BF1868C06840F080001C68D2
:1020C000E0600020DEE70220DCE7000038B50446CF
:1020D0000648807840B1054800F0FCF800900122E5
:1020E00069462046FFF7C5FF38BD0000AF04002059
:1020F00000BFFEE700B587B000BF002001902D486B
:10210000006840F080002B4908600846006800F035
:102110008000019000BF00BF00BF00200190084672
:10212000006840F0040008600846006800F0040001
:10213000019000BF00BF00BF00200190084600686A
:1021400040F0010008600846006800F001000190BE
:1021500000BF00BF00BF002001900846006840F0AB
:10216000080008600846006800F00800019000BF01
:1021700000BF00BF002001900846006840F040000A
:1021800008600846006800F04000019000BF00BFF2
:10219000002230210848FFF70FF93020029001207B
:1021A000039000200490059002A90348FFF700F86F
:1021B00007B000BD30380240000002403EB50021AB
:1021C00008460FF09DFB0020134908601349086082
:1021D00013490860134814490022114BCDE900212E
:1021E00002900E4A0C49114808F084F904460F4841
:1021F00008F02AFA0D4890F83500C0F3800018B1B5
:102200000A4808F06FFA02E0084808F023FA074885
:1022100000F0B8FB3EBD00000400002008000020D4
:102220000C000020BD1A0108656500089801002017
:1022300010B5012202212520FFF73CF92520FFF7E8
:102240002CF910BD10B50C480C4908604FF4E13072
:102250004860002109488160C16001610C21416131
:1022600000218161C161FFF7E7FD18B1422104A09F
:1022700000F0A2FB10BD0000001001405406002039
:102280002E2E5C557365725C5372635C757361725C
:10229000742E630000BFFEE770470000024800682C
:1022A000C0F30220704700000CED00E010B50028DC
:1022B00007DA0A07140E054A00F00F031B1FD45457
:1022C00003E00A07130E024A135410BD18ED00E094
:1022D00000E400E00146887810B18878401E8870DC
:1022E0000A78501C0870C81C805C704710B5FFF756
:1022F0006FF810F06FFB10BD10B592B000BF00205A
:1023000000903048006840F080502E490860084630
:10231000006800F08050009000BF00BF00BF0020A8
:1023200000902948006840F480402749086008462A
:10233000006800F48040009000BF00BF01200690BC
:102340000004079002200C9041050D9108210E9188
:102350004FF4A8710F91022110910421119106A848
:10236000FFF76EFA20B14FF4AE7118A000F024FB15
:102370000F20019002200290002003904FF4A05003
:1023800004904FF480500590052101A8FFF7E4F870
:1023900020B14FF4B5710DA000F00EFBFFF7C4F9AA
:1023A0004FF47A71B0FBF1F42046FFF783FC042070
:1023B000FFF76CFC00221146501EFFF77BF812B0AD
:1023C00010BD000040380240007000402E2E5C55C9
:1023D0007365725C5372635C6D61696E2E6300009D
:1023E0001448006840F47000124908601248006800
:1023F00040F001001049086000200F4908310860D2
:102400000D4800680D4908400B4908600C48091D3B
:102410000860081F006820F48020091F0860002061
:1024200005490C3108604FF00060024980390860AE
:102430007047000088ED00E000380240FFFFF6FE24
:102440001030002470B50546AC6B0020E085E084B8
:102450002046FFF749FC70BD0168C96821F49071FE
:102460000268D1600168496921F001010268516187
:10247000202180F83A10704710B504462068C068E3
:1024800020F040002168C860202084F839002046F0
:10249000FFF71CFE002010BD70B5044694F83A000A
:1024A000222844D1A068B0F5805F13D1A56A2069C5
:1024B00040B920684068C0F308002880A06A801CEA
:1024C000A06219E020684068C0B22880A06A401C61
:1024D000A06211E0206938B920684068C1B2A26AE0
:1024E000501CA062117007E02068406800F07F0176
:1024F000A26A501CA0621170E08D401E80B2E0857F
:1025000098B92068C06820F490702168C86020687D
:10251000406920F0010021684861202084F83A00D9
:102520002046FFF723FD002070BD0020FCE70220BD
:10253000FAE700002DE9F04104460025206805690E
:1025400025F44055E0680543206805612068C568AA
:1025500049F20C6085432169A0680843616908431A
:10256000E169084305432068C5602068456925F492
:102570004075A069054320684561E069B0F5004FEA
:102580007ED1C4492068884203D0C349206888426C
:102590005DD1FFF7E5F800EBC00101EB00106168C9
:1025A0004900B0FBF1F06421B0FBF1F00601FFF748
:1025B000D7F800EBC00101EB001061684900B0FBE7
:1025C000F1F7FFF7CDF800EBC00101EB00106168F7
:1025D0004900B0FBF1F06421B0FBF1F000EBC00169
:1025E00001EB0010A7EB8000322101EBC000642159
:1025F000B0FBF1F000F0F80006EB4006FFF7B0F892
:1026000000EBC00101EB001061684900B0FBF1F77D
:10261000FFF7A6F800EBC00101EB0010616849006C
:10262000B0FBF1F06421B0FBF1F000EBC00101EB75
:102630000010A7EB8000322101EBC0006421B0FB49
:10264000F1F000F0070030442168886020E1FFF7D6
:1026500071F800EBC00101EB001061684900B0FBAC
:10266000F1F06421B0FBF1F00601FFF763F800EB35
:10267000C00101EB001061684900B0FBF1F700E018
:1026800045E0FFF757F800EBC00101EB001061686F
:102690004900B0FBF1F06421B0FBF1F000EBC001A8
:1026A00001EB0010A7EB8000322101EBC000642198
:1026B000B0FBF1F000F0F80006EB4006FFF73AF847
:1026C00000EBC00101EB001061684900B0FBF1F7BD
:1026D000FFF730F800EBC00101EB00106168490022
:1026E000B0FBF1F06421B0FBF1F000EBC00101EBB5
:1026F0000010A7EB8000322101EBC0006421B0FB89
:10270000F1F000F00700304421688860C0E06149C2
:102710002068884203D06049206888425CD1FFF776
:102720001FF800EBC00101EB001061688900B0FBED
:10273000F1F6FFF715F800EBC00101EB001061683E
:102740008900B0FBF1F06421B0FBF1F000EBC001B7
:1027500001EB0010A6EB8000322101EB0010642198
:10276000B0FBF1F000F0F006FEF7FAFF00EBC0015D
:1027700001EB001061688900B0FBF1F06421B0FB4F
:10278000F1F006EB0016FEF7EBFF00EBC00101EBEA
:10279000001061688900B0FBF1F7FEF7E1FF00EB84
:1027A000C00101EB001061688900B0FBF1F0642109
:1027B000B0FBF1F000EBC00101EB0010A7EB8000D3
:1027C000322101EB00106421B0FBF1F000F00F00AA
:1027D0003044216888605BE0FEF7ACFF00EBC0018D
:1027E00001EB001061688900B0FBF1F6FEF7A2FF73
:1027F00000EBC00101EB001061688900B0FBF1F053
:102800006421B0FBF1F000EBC00101EB0010A6EB7E
:102810008000322101EB00106421B0FBF1F000F0E8
:10282000F006FEF787FF00EBC00101EB00106168C6
:102830008900B0FBF1F06421B0FBF1F006EB00166B
:10284000FEF778FF00EBC00101EB00106168890022
:10285000B0FBF1F7FEF76EFF00EBC00101EB0010DB
:1028600061688900B0FBF1F06421B0FBF1F000EB8E
:10287000C00101EB0010A7EB8000322101EB00103A
:102880006421B0FBF1F000F00F0030442168886053
:10289000BDE8F0810010014000140140014691F8AC
:1028A000390021282CD18868B0F5805F0FD10A6AE1
:1028B0001088C0F308000B685860086918B9086AE6
:1028C000801C086209E0086A401C086205E00B6A87
:1028D000581C086218780B685860C88C401E80B27B
:1028E000C88458B90868C06820F080000B68D860B8
:1028F0000868C06840F040000B68D860002070474E
:102900000220FCE72DE9F04104460D4617469846A3
:10291000069E21E0701CF8B12EB1FEF753FDA0EB2E
:102920000800B04218D92068C06820F4D07021682F
:10293000C8602068406920F00100216848612020BB
:1029400084F8390084F83A0000BF002084F8380089
:1029500000BF0320BDE8F081206800682840A8423D
:1029600001D1012000E00020B842D3D00020F1E7DF
:1029700010B50248FFF7BAF910BD00005406002058
:1029800000BFFEE790F8351001F0010119B10121F7
:10299000034A117002E00521014A117070470000DE
:1029A000100000204378C21CD1544278521C42705F
:1029B0008278521C8270704700BFFEE70FB4054B4F
:1029C00010B503A9044A029800F018F810BC5DF88D
:1029D00014FB0000556600089401002002E008C8BE
:1029E000121F08C1002AFAD170477047002001E089
:1029F00001C1121F002AFBD1704700002DE9FF4FD3
:102A00008DB00F460546002606E025280BD0DDE9EF
:102A10000F1290476D1C761C28780028F5D111B054
:102A20003046BDE8F08F0024A246A1460122EC49C1
:102A300000E0044315F8013F203B02FA03F008428E
:102A4000F7D128782A2810D06FF02F022878A0F12B
:102A50003001092914D80AEB8A0102EB410144F044
:102A6000020400EB010A6D1CF0E701CF5FEA000AE7
:102A700003D544F40054CAF1000A44F002046D1C6A
:102A800028782E2817D115F8010F44F004042A28BD
:102A90000ED06FF02F022878A0F1300109290AD852
:102AA00009EB890102EB410100EB01096D1CF2E722
:102AB00057F8049B6D1C28786C280FD006DC4C2836
:102AC00017D068280DD06A2814D104E0742810D0DB
:102AD0007A280FD10DE044F400140AE044F4801485
:102AE00001E044F440146978814202D104F5801475
:102AF0006D1C6D1C2A786E2A1FD00CDC632A31D025
:102B000004DC002A8BD0582A11D1A3E0642A68D0B3
:102B1000692A0CD165E0732A2ED004DC6F2A73D0A9
:102B2000702A04D19BE0752A6FD0782A6ED01046A7
:102B3000DDE90F129047761C50E1C4F302500228E1
:102B400006D0032809D0042801CF09D0066045E14A
:102B500001CFF117C0E9006140E101CF06803DE1FE
:102B600006703BE117F8040B8DF8000000208DF88B
:102B70000100EB46012003E057F804BB4FF0FF30A3
:102B800061074FF0000102D40DE008F10101884611
:102B900049450FDA8045F8DB1BF808100029F4D10D
:102BA00008E008F1010188468142FADB1BF80810B1
:102BB0000029F6D1DDE90F23AAEB08008146214662
:102BC00000F036F9304400EB080604E0DDE90F12AE
:102BD0001BF8010B9047B8F10108F7D2214648468F
:102BE000F7E00A21C4F302534FF0000B0891022BC7
:102BF00004D001CFC117032B09D00AE0FF1D27F035
:102C00000707F7E8020108E032E01FE020E000B229
:102C1000C117042B01D140B2C117031E71F100038B
:102C200007DA4FF0000CD0EB0C006CEB01012D2308
:102C300002E0230504D52B238DF82430012303E083
:102C4000E30701D02023F7E7984658E00A2110E077
:102C500010210EE010204FF0000B08900CE0102126
:102C60004FF0000B44F004044FF00809089103E012
:102C700008214FF0000B0891C4F30253022B04D03B
:102C800001CF0021032B06D006E0FF1D27F0070728
:102C9000F7E8020103E080B2042B00D1C0B24FF08C
:102CA000000823072BD5702A07D0DDF820C08CF050
:102CB000100C5CEA0B0C05D00EE040238DF824309C
:102CC000012308E050EA010306D030238DF82430B8
:102CD0008DF8252002239846DDF820C08CF0080CE2
:102CE0005CEA0B0C0BD150EA010301D1630706D556
:102CF00030238DF824304FF00108A9F10109582A3A
:102D000004D038A20B9208AA0A920BE03AA2F9E783
:102D10005B46089AFDF7FAFA0B9B9B5C0A9A521ED7
:102D20000A92137050EA0102F2D10A98ADEB00004A
:102D300000F1200B600702D524F4803401E04FF04D
:102D40000109D94502DDA9EB0B0000E0002000EBF2
:102D50000B0141440890AAEB010AE00306D4DDE927
:102D60000F232146504600F063F806444FF0000957
:102D700008E009A911F80900DDE90F12904709F1EF
:102D80000109761CC145F4DBE0030CD5DDE90F2316
:102D90002146504600F04CF8064404E0DDE90F12ED
:102DA00030209047761C0899481E08900029F5DCD1
:102DB00008E00A980A990078491C0A91DDE90F1287
:102DC0009047761CBBF10001ABF1010BF1DC214611
:102DD0005046DDE90F2300F019F806446D1C1BE690
:102DE00009280100303132333435363738396162E1
:102DF00063646566000000003031323334353637A5
:102E00003839414243444546000000002DE9F04175
:102E1000044600251E461746880404D405E03946BA
:102E20002020B0476D1C641EF9D52846BDE8F0810E
:102E30002DE9F041044600251E469046C80301D501
:102E4000302700E02027880404D505E041463846B5
:102E5000B0476D1C641EF9D52846BDE8F08100001E
:102E60002DE9F04706460F46904634461CB96FF0F0
:102E70000500BDE8F08704F1140009F02FFF10B938
:102E80006FF00500F5E77FB9304904F1140009F04F
:102E900015FF30B9606A20B1002211462046636AEE
:102EA00098476FF00500E4E72078616A06F080FD3E
:102EB00005467DB9254904F1140009F0FFFE30B93B
:102EC000606A20B1002211462046636A98474FF09D
:102ED000FF30CEE76F60284609F0F4FD85F80880E2
:102EE000294604F1140009F0E9FE30B3D5F8049046
:102EF000002148460AF098F9002148460DF024F9CF
:102F0000002148460DF0A6FB0022114648460CF071
:102F1000E1F8002148460AF075FD0020686005F1DF
:102F2000100009F0AFFE05F1100009F0C4FE2846BC
:102F300006F0EEFE4FF0FF309BE7606A20B1002202
:102F400011462046636A9847002092E72800002037
:102F500070B50446254668688047224602492868BD
:102F600009F022FF70BD0000512F000800BF0100D2
:102F7000A0F10100FBD1704770B505460E4600BFB9
:102F800045B90BA340F27B3211A115A0FFF716FD46
:102F900000BFFEE700BF2C6A4CB1607A082806D15A
:102FA0003068A16A884202D1284600F00DFB70BD4E
:102FB0002E2E5C6C7769705C7372635C636F7265F4
:102FC0005C697076345C646863702E630000000096
:102FD0006E6574696620213D204E554C4C00000002
:102FE000417373657274696F6E2225732220666166
:102FF000696C6564206174206C696E6520256420AD
:10300000696E2025730A00007CB5064600BF46B9EC
:1030100045A340F2FE324CA152A0FFF7CFFC00BF07
:10302000FEE700BF346A00BF44B93FA34FF480629B
:1030300056A14CA0FFF7C2FC00BFFEE700BF002076
:103040002084606B401C70B1606B1E303C21B0FB73
:10305000F1F5B5F5803F01D34FF6FF756584608CBF
:1030600008B901206084A06B401C80B1A06B1E30A9
:103070003C21B0FBF1F5B5F5803F01D34FF6FF756C
:103080002583208B08B901202083208BA083E06B4F
:10309000401C80B1E06B1E303C21B0FBF1F5B5F572
:1030A000803F01D34FF6FF756583608B08B901201F
:1030B0006083608BE083208B618B884204DB608BB4
:1030C000002801DD00202083E07A10B1E06A019041
:1030D00010E094F828007F2802DCFF21019108E02D
:1030E000C02803DB6FF07F41019102E04FF6FF71D2
:1030F000019100BF206B0090009848B900BFA06A02
:1031000001990840009000BF009840F08070009046
:103110000A21204601F0A0FC6B4601AA04F1280117
:10312000304607F06CFA7CBD2E2E5C6C7769705CC3
:103130007372635C636F72655C697076345C64683B
:1031400063702E6300000000646863705F62696EE4
:10315000643A206E6574696620213D204E554C4CC2
:1031600000000000417373657274696F6E222573ED
:1031700022206661696C6564206174206C696E65EB
:1031800020256420696E2025730A0000646863703E
:103190005F62696E643A206468637020213D204E4E
:1031A000554C4C002DE9F04105462C6A082120467B
:1031B00001F052FC002204F12801284602F0D8FD5B
:1031C0000746A07AFF2802DAA07A401CA0724FF4CA
:1031D000FA7606F2F310314690FBF1F0E082BDE89A
:1031E000F081000070B5184805682AE02C6A34B3F5
:1031F000607A20B3608C68B1208C401C80B220843F
:10320000618C884206D1284601F0E6FA284600F093
:10321000B5FA14E0E08B40B1E18B481EE083012950
:1032200003D1284601F074FD09E0A08B38B1A18BD1
:10323000481EA083012902D1284601F048FD2D68CF
:1032400000BF002DD2D170BD8C0000202DE9F041CF
:1032500007460C46164600BF47B966A340F21D72EA
:103260006CA174A0FFF7AAFB00BFFEE700BF00BF80
:1032700044B960A340F21E7278A16EA0FFF79EFBD6
:1032800000BFFEE700BF00BFE06840B159A340F2B5
:103290001F727AA167A0FFF791FB00BFFEE700BF96
:1032A00000BF206940B153A34FF4E4627DA161A047
:1032B000FFF784FB00BFFEE700BF00224FF49A71C6
:1032C000104607F025FAE060E06818B94FF0FF30CB
:1032D000BDE8F08100BFE0684089B0F59A7F08D270
:1032E00044A340F2277279A152A0FFF767FB00BF09
:1032F000FEE700BF032E08D0A07A18B9FCF7BCFF88
:1033000082490860814800682060E0684068206168
:103310000120216908702169487097F82E00216901
:10332000887000202169C870206804F01DFE2169A2
:103330004860002021690881216948812169C860AD
:10334000082E0BD0042E09D0072E07D0032E08D14B
:10335000607A052802D0607A042802D17868216951
:10336000C86000202169086121694861216988617C
:1033700000250FE097F82E00A84205DD062D03D2A8
:1033800007F12F00405D00E0002021691C31485505
:10339000681C85B2102DEDD3002505E000212069C1
:1033A0002C304155681C85B2402DF7D3002505E02F
:1033B000002120696C304155681C85B2802DF7D3FF
:1033C00053482169C1F8EC000020A082002504E0E8
:1033D0002069F0304555681C85B2442DF8D3012290
:1033E0003521204600F052FB3146204600F096FB86
:1033F00000206DE72E2E5C6C7769705C7372635CE5
:10340000636F72655C697076345C646863702E63A8
:1034100000000000646863705F6372656174655FDB
:103420006D73673A206E6574696620213D204E55A4
:103430004C4C0000417373657274696F6E22257382
:1034400022206661696C6564206174206C696E6518
:1034500020256420696E2025730A0000646863706B
:103460005F6372656174655F6D73673A206468635A
:103470007020213D204E554C4C0000006468637064
:103480005F6372656174655F6D73673A206468633A
:10349000702D3E705F6F7574203D3D204E554C4C35
:1034A00000000000646863705F6372656174655F4B
:1034B0006D73673A20646863702D3E6D73675F6F4C
:1034C0007574203D3D204E554C4C0000646863707F
:1034D0005F6372656174655F6D73673A20636865E9
:1034E000636B207468617420666972737420706203
:1034F00075662063616E20686F6C642073747275EA
:10350000637420646863705F6D736700000100205E
:103510006382536310B500BF0E480078002807DCB3
:103520000DA3F32214A11DA0FFF748FA00BFFEE788
:1035300000BF08480078401E064908700846007819
:1035400030B9204800680EF057FD00201D49086082
:1035500010BD0000FC0000202E2E5C6C7769705CB2
:103560007372635C636F72655C697076345C646807
:1035700063702E6300000000646863705F706362B4
:103580005F726566636F756E7428293A207265668E
:10359000636F756E74206572726F7200417373652C
:1035A0007274696F6E22257322206661696C65648E
:1035B000206174206C696E6520256420696E202569
:1035C000730A0000F80000202DE9FC4105462C6A32
:1035D00000260C21204601F03FFA0422214628460D
:1035E000FFF734FE064616BB04223221204600F0C7
:1035F0004DFAA06A04F0B8FC80464146204600F02F
:103600005FFB204600F016FCA28AF03291B2E0681F
:1036100007F0DCFE0F48CDE9005043230E4A0F4867
:10362000E16800680EF052FD204600F019F8A07A1B
:10363000FF2802DAA07A401CA07242F2107707F24B
:10364000F3104FF4FA7190FBF1F0E0823046BDE8E0
:10365000FC810000A0370108A4370108F800002011
:1036600010B5044600BF44B916A340F26D721DA107
:1036700024A0FFF7A3F900BFFEE700BF00BFE0688A
:1036800040B910A340F26E7228A11EA0FFF796F970
:1036900000BFFEE700BF00BF206940B909A340F2A8
:1036A0006F722CA117A0FFF789F900BFFEE700BFDA
:1036B000E06810B1E06807F0EDFC0020E0602061F8
:1036C00010BD00002E2E5C6C7769705C7372635CB9
:1036D000636F72655C697076345C646863702E63D6
:1036E00000000000646863705F64656C6574655F0A
:1036F0006D73673A206468637020213D204E554CFD
:103700004C000000417373657274696F6E222573FB
:1037100022206661696C6564206174206C696E6545
:1037200020256420696E2025730A00006468637098
:103730005F64656C6574655F6D73673A2064686388
:10374000702D3E705F6F757420213D204E554C4C9E
:1037500000000000646863705F64656C6574655F99
:103760006D73673A20646863702D3E6D73675F6F99
:10377000757420213D204E554C4C00002DE9FC4134
:1037800005462C6A00270020A0620621204601F091
:1037900063F9012221462846FFF758FD0746002F0E
:1037A0002ED102223921204600F070F9A98D204641
:1037B00000F0FAFA04223721204600F067F90026CB
:1037C00006E01F48815D204600F0A8F9701CC6B2D3
:1037D000042EF6D3204600F02DFBA28AF03291B2DF
:1037E000E06807F0F3FD1748CDE900504323164A7F
:1037F0001648E16800680EF069FC2046FFF730FFCC
:10380000A07AFF2802DAA07A401CA072A07A0628CB
:1038100003DAA17A0120884000E03C2000EB40015F
:10382000C1EBC0104FF6FF7101EAC00808F2F310B7
:103830004FF4FA7190FBF1F0E0823846BDE8FC816C
:10384000F4000020A0370108A4370108F800002088
:1038500070B50D48056813E02C6A7CB1E08A012838
:1038600003DDE08A401EE08208E0E08A012805D1FD
:10387000E08A401EE082284601F06EFA2D6800BF03
:10388000002DE9D170BD00008C000020F8B506467F
:10389000346A0020E06220632648C07810B12648D0
:1038A000C06860632348007918B123480069A063A9
:1038B00002E0606B4008A0631E48407918B11E48C2
:1038C0004069E06304E0606BC0EBC000C008E063E7
:1038D00060680069A0621748807938B11649886924
:1038E00004F042FBE0620120E07201E00020E0729F
:1038F0001048C07920B11049C86904F035FB206335
:1039000000250DE005F108010B4A52F8210004F0F2
:103910002BFB00906946284601F094FC681CC5B258
:10392000022D05DA05F108000249085C0028E9D1FA
:10393000F8BD00005C7000203470002070B50446B3
:10394000256A0C21284601F087F8054B1A461146D6
:10395000204606F054FE2046FFF710FF70BD000021
:10396000A037010870B505462C6A0748807850B129
:103970000649886804F0F8FA606260680069A0622D
:10398000284600F0E3FF70BD5C700020347000201A
:1039900010B51E480078002831D100BF1C480068CF
:1039A000002807D01BA3D92222A12CA0FFF706F8DC
:1039B00000BFFEE700BF0EF0D9FA154908600846BF
:1039C000006810B94FF0FF3010BD11480068007A50
:1039D00040F020000E4909680872442229490C4829
:1039E00000680EF039F943222649094800680EF0B4
:1039F0007DF900222449064800680EF0F9FA0348D0
:103A00000078401C014908700020DDE7FC00002020
:103A1000F80000202E2E5C6C7769705C7372635C1A
:103A2000636F72655C697076345C646863702E6382
:103A300000000000646863705F696E635F706362BA
:103A40005F726566636F756E7428293A206D656DC7
:103A50006F7279206C65616B0000000041737365C3
:103A60007274696F6E22257322206661696C6564C9
:103A7000206174206C696E6520256420696E2025A4
:103A8000730A0000A03701083546000870B50446E7
:103A90000E46154600BFA08A801C2844442808D939
:103AA0000BA34FF4AE62124912A0FEF787FF00BFCE
:103AB000FEE700BFA18A481CA0822069F03046546E
:103AC000A18A481CA0822069F030455470BD0000D6
:103AD0002E2E5C6C7769705C7372635C636F7265C9
:103AE0005C697076345C646863702E63000000006B
:103AF000A03B0108417373657274696F6E22257370
:103B000022206661696C6564206174206C696E6551
:103B100020256420696E2025730A000070B50446D4
:103B20000D4600BFA08A442808D308A340F27B5268
:103B30000EA11DA0FEF742FF00BFFEE700BFA18A55
:103B4000481CA0822069F030455470BD2E2E5C6C5C
:103B50007769705C7372635C636F72655C697076C1
:103B6000345C646863702E630000000064686370F6
:103B70005F6F7074696F6E5F627974653A20646814
:103B800063702D3E6F7074696F6E735F6F75745FD5
:103B90006C656E203C20444843505F4F5054494F61
:103BA0004E535F4C454E0000417373657274696FEC
:103BB0006E22257322206661696C65642061742021
:103BC0006C696E6520256420696E2025730A0000EB
:103BD0002DE9F04707460C46A06A00283BD0A06AB2
:103BE000FCF780FB0546002D34D0D4F82880B88A35
:103BF000C0F1410900BF4D4508D918A340F29D52BC
:103C00001EA125A0FEF7DAFE00BFFEE700BF4D456E
:103C100001D2284600E04846064600BFFF2E08D9DC
:103C20000EA340F29F5215A11BA0FEF7C7FE00BFD6
:103C3000FEE700BFF2B20C213846FFF727FF04E091
:103C400018F8011B3846FFF769FF3000A6F101069E
:103C5000F6D100BF00BFBDE8F08700002E2E5C6CDF
:103C60007769705C7372635C636F72655C697076B0
:103C7000345C646863702E63000000004448435065
:103C80003A20686F73746E616D6520697320746F7C
:103C90006F206C6F6E672100417373657274696F7A
:103CA0006E22257322206661696C65642061742030
:103CB0006C696E6520256420696E2025730A0000FA
:103CC00070B504460D4600BFA08A001D442808D9DF
:103CD00013A340F28A521AA129A0FEF76FFE00BF7B
:103CE000FEE700BF290EA28A501CA0822069F03096
:103CF0008154C5F30741A28A501CA0822069F0308C
:103D00008154C5F30721A28A501CA0822069F0309B
:103D10008154A28A501CA0822069F030855470BD65
:103D20002E2E5C6C7769705C7372635C636F726576
:103D30005C697076345C646863702E630000000018
:103D4000646863705F6F7074696F6E5F6C6F6E67CD
:103D50003A20646863702D3E6F7074696F6E735F94
:103D60006F75745F6C656E202B2034203C3D2044C1
:103D70004843505F4F5054494F4E535F4C454E009F
:103D8000417373657274696F6E22257322206661B8
:103D9000696C6564206174206C696E6520256420FF
:103DA000696E2025730A000070B504460D4600BFF9
:103DB000A08A801C442808D90BA340F282521249E1
:103DC00012A0FEF7FBFD00BFFEE700BF290AA28A92
:103DD000501CA0822069F0308154A28A501CA0821D
:103DE0002069F030855470BD2E2E5C6C7769705C54
:103DF0007372635C636F72655C697076345C64686F
:103E000063702E63000000005C3B01084173736522
:103E10007274696F6E22257322206661696C656415
:103E2000206174206C696E6520256420696E2025F0
:103E3000730A000010B5044600BF44B91FA340F246
:103E4000827226A12EA0FEF7B9FD00BFFEE700BFDB
:103E500000BF2069002808D118A340F2837232A164
:103E600027A0FEF7ABFD00BFFEE700BF00BFA08AA2
:103E7000442808D311A340F2847236A120A0FEF793
:103E80009DFD00BFFEE700BFFF21A28A501CA0825B
:103E90002069F030815406E00021A28A501CA082E3
:103EA0002069F0308154A08A442803D3207D00F09B
:103EB000030010B1A08A4428EED310BD2E2E5C6CF6
:103EC0007769705C7372635C636F72655C6970764E
:103ED000345C646863702E63000000006468637083
:103EE0005F6F7074696F6E5F747261696C65723A4E
:103EF000206468637020213D204E554C4C0000002A
:103F0000417373657274696F6E2225732220666136
:103F1000696C6564206174206C696E65202564207D
:103F2000696E2025730A0000646863705F6F7074A7
:103F3000696F6E5F747261696C65723A2064686360
:103F4000702D3E6D73675F6F757420213D204E5557
:103F50004C4C0A00646863705F6F7074696F6E5FC9
:103F6000747261696C65723A20646863702D3E6F8B
:103F70007074696F6E735F6F75745F6C656E203CF3
:103F800020444843505F4F5054494F4E535F4C4577
:103F90004E0A00002DE9F34F89B0894600200690B3
:103FA00005900A21F648FCF792F9B9F80A002C2886
:103FB00004D26FF001000BB0BDE8F08FD9F8041007
:103FC000099841604FF0F00AB9F80800079000BF67
:103FD0004C460AE06089AAEB00001FFA80FA61896A
:103FE0000798401A80B20790246814B16089504540
:103FF000F0DD14B96FF00100DDE75746DDF81CB0C5
:104000006068089091E10898C05D049000264FF028
:10401000FF38B81C80B203906189781C814203DDAF
:10402000791C0898455C07E0206818B12068406852
:10403000007800E0002005462E460498342876D00B
:104040000BDC032828D003DC80B101286AD113E0FF
:10405000062832D03328F9D157E0352873D03628D6
:1040600072D03A2871D03B28F0D1B1E0002005464B
:104070000646781E87B2BDE000BF042D08D0C1A35C
:1040800040F2F652C7A1CAA0FEF798FC00BFFEE7B7
:1040900000BF4FF00608ADE0042600BFB54208DAC5
:1040A000B8A340F2FB52CCA1C1A0FEF787FC00BF31
:1040B000FEE700BF4FF007089CE000BFE91705EBE3
:1040C00091718910A5EB810141B1AEA340F201626B
:1040D000C6A1B7A0FEF772FC00BFFEE700BF082D27
:1040E00001DA284600E00820064600BFB54208DA9B
:1040F000A4A340F20462B8A1ADA0FEF75FFC00BF2C
:10410000FEE700BF4FF0080874E000BF042D0AD09E
:104110009CA340F20962A3A1A5A0FEF74FFC00BF3B
:10412000FEE704E064E000BF4FF0030862E000BF78
:10413000012D0BD093A340F21762B0A19CA0FEF713
:104140003DFC00BFFEE713E022E031E000BF00BF0E
:10415000BAF1F00F08D08BA340F21962AAA194A083
:10416000FEF72CFC00BFFEE700BF4FF0000841E067
:1041700000BF012D08D083A340F21D629FA18CA037
:10418000FEF71CFC00BFFEE700BF4FF0010831E066
:1041900000BF042D08D07BA340F2216281A184A03E
:1041A000FEF70CFC00BFFEE700BF4FF0020821E065
:1041B00000BF042D08D073A340F2256279A17CA032
:1041C000FEF7FCFB00BFFEE700BF4FF0040811E064
:1041D00000BF042D08D06BA340F2296271A174A026
:1041E000FEF7ECFB00BFFEE700BF4FF0050801E063
:1041F000002600BF00BFA81C384487B2002E72DD25
:104200000020029000BF00BFB8F1000F02DBB8F140
:104210000A0F08DB5BA340F2366281A164A0FEF7BF
:10422000CDFB00BFFEE700BF554810F8080000288E
:1042300058D1042E01DA304600E00420019002A992
:104240002046039B019A06F08BFE014601988142AD
:1042500002D06FF00100AEE6042E24DD00BFF1179E
:1042600006EB91718910A6EB810141B145A340F2A3
:104270003E6270A14EA0FEF7A1FB00BFFEE700BFAB
:1042800001203F4901F80800029803F06DFE6F49D4
:1042900041F82800301FC6B20398001D80B2039079
:1042A00008F10108AFE7042E04D1029803F05CFE88
:1042B00002900FE000BF012E08D032A34FF4C96274
:1042C00063A13BA0FEF77AFB00BFFEE700BF9DF8AD
:1042D0000800029001202A4901F808005B49029871
:1042E00041F8280000BF6089B8421DDC6089381A97
:1042F00087B26089ABEB00001FFA80FB5F4512DAE2
:10430000BBF1000F0FD0246800BF44B91DA340F2D9
:10431000546254A126A0FEF751FB00BFFEE700BF88
:104320006068089000E008E000BF34B10898C05D04
:10433000FF2802D05F45FFF666AE00BF1048007848
:10434000A0B14249086800210D4A1170012802D12C
:104350000121069109E0022802D10121059104E022
:10436000032802D101210591069100BF069830B1C2
:10437000002006904FF06C0AEC20079028E67BE0C6
:104380005C7000202E2E5C6C7769705C7372635CCD
:10439000636F72655C697076345C646863702E6309
:1043A000000000006C656E203D3D203400000000E0
:1043B000417373657274696F6E2225732220666182
:1043C000696C6564206174206C696E6520256420C9
:1043D000696E2025730A00006C656E203E3D2064E6
:1043E00065636F64655F6C656E0000006C656E20D0
:1043F00025252034203D3D20300000006C656E20D6
:104400003D3D2031000000006F7665726C6F616485
:1044100020696E2066696C652F736E616D650000A2
:10442000636865636B206465636F64655F69647866
:10443000000000006465636F64655F6C656E202535
:10444000252034203D3D2030000000003470002045
:10445000696E76616C6964206465636F64655F6C26
:10446000656E00006E6578742070627566207761F5
:1044700073206E756C6C0000059830B100200590BB
:104480004FF02C0A6C200790A2E5002093E5000075
:104490002DE9F84305462C6A0421204600F0DCFA99
:1044A000032221462846FEF7D1FE0746002F30D1D1
:1044B000022239212046FFF7E9FAA98D2046FFF7AD
:1044C00073FC042237212046FFF7E0FA002606E0BD
:1044D0001E48815D2046FFF721FB701CC6B2042EEA
:1044E000F6D329462046FFF773FB2046FFF7A2FCD0
:1044F000A28AF03291B2E06806F068FF009543238B
:10450000134A1448E16800680DF0B6FD2046FFF735
:10451000A7F8A07AFF2802DAA07A401CA072A07A3D
:104520000A2805DAA07A4FF47A7110FB01F001E055
:1045300042F210701FFA80F808F2F3104FF4FA718B
:1045400090FBF1F0E0823846BDE8F883F4000020EB
:10455000A4370108F80000202DE9F8430646346A24
:104560000321204600F078FA032221463046FEF768
:104570006DFE0746002F3AD1022239212046FFF76F
:1045800085FA4FF410712046FFF70EFC0422322109
:104590002046FFF77BFAA06A03F0E6FC8146494615
:1045A0002046FFF78DFB042237212046FFF76EFAE5
:1045B000002506E01C48415D2046FFF7AFFA681C65
:1045C000C5B2042DF6D32046FFF734FCA28AF032A0
:1045D00091B2E06806F0FAFE00964323134A1448AD
:1045E000E16800680DF048FD2046FFF739F8A07A31
:1045F000FF2802DAA07A401CA072A07A0A2805DA05
:10460000A07A4FF47A7110FB01F001E042F21070D1
:104610001FFA80F808F2F3104FF4FA7190FBF1F0F2
:10462000E0823846BDE8F883F4000020A437010892
:10463000F80000202DE9F05F83461646DDF828A03B
:104640004B4847683C6AD6F804900CB1207A00B910
:1046500086E000BF00BF00BF606840B145A34FF4D3
:10466000D5624CA150A0FEF7A9F900BFFEE700BF3C
:1046700070892C2800DA73E099F80000022800D035
:104680006EE000250AE007F12F00415D09F11C00F2
:10469000405D814200D063E0681CC5B297F82E00EF
:1046A000A84203DD062D01D2102DECD3D9F8040069
:1046B00003F05AFC2168884200D051E03146204680
:1046C000FFF768FC00B14BE04148407800B947E093
:1046D000404890F80480B8F1050F22D1607A012893
:1046E0000FD13846FFF7D2F897F8350000F00800F0
:1046F00018B13846FEF756FD31E03846FEF784FC27
:104700002DE0607A032805D0607A042802D0607A10
:10471000052824D13846FFF7B9F83846FEF774FC6F
:104720001DE0B8F1060F0FD1607A032808D0607A37
:10473000012805D0607A042802D0607A052803D1C8
:104740003846FFF7FBF80AE0B8F1020F07D1607AAC
:10475000062804D10020E0823846FFF703F900BFA5
:104760000CB100206060304606F094FCBDE8F09F7C
:10477000140B00202E2E5C6C7769705C7372635C86
:10478000636F72655C697076345C646863702E6315
:10479000000000007265706C79207761736E277479
:1047A0002066726565640000417373657274696F99
:1047B0006E22257322206661696C65642061742015
:1047C0006C696E6520256420696E2025730A0000DF
:1047D0005C700020347000202DE9FC4105462C6AF5
:1047E0001CB96FF00F00BDE8FC81606A019028469B
:1047F00000F05CFA07460021204600F02DF9002069
:104800006062A062E0622063E063A0636063608432
:104810002084E083A08307B9E5E7072221462846E4
:10482000FEF714FD064606BB042236212046FFF79C
:104830002DF9019803F098FB804641462046FFF78A
:104840003FFA2046FFF7F6FAA28AF03291B2E0680A
:1048500006F0BCFD0095432301AA0848E168006802
:104860000DF00AFC2046FEF7FBFE054B1A461146EA
:10487000284605F0C4FE3046B5E70000F8000020E9
:10488000A03701082DE9F84305462C6A052120468A
:1048900000F0E2F8032221462846FEF7D7FC07463F
:1048A000002F31D1022239212046FFF7EFF8A98DE0
:1048B0002046FFF779FA042237212046FFF7E6F871
:1048C000002606E01F48815D2046FFF727F9701C8F
:1048D000C6B2042EF6D329462046FFF779F92046C2
:1048E000FFF7A8FAA28AF03291B2E06806F06EFDF6
:1048F0000095432304F124021348E16800680DF099
:10490000BBFB2046FEF7ACFEA07AFF2802DAA07AB5
:10491000401CA072A07A0A2805DAA07A4FF4FA6146
:1049200010FB01F001E044F620601FFA80F808F265
:10493000F3104FF4FA7190FBF1F0E0823846BDE8D5
:10494000F8830000F4000020F80000202DE9FC4767
:1049500005462C6A0121204600F07EF803222146FC
:104960002846FEF773FC0746002F4CD1022239215E
:104970002046FFF78BF8A98D2046FFF715FA042291
:1049800032212046FFF782F8A06A03F0EDFA814653
:1049900049462046FFF794F9042236212046FFF7C6
:1049A00075F8606A03F0E0FA814649462046FFF751
:1049B00087F9042237212046FFF768F8002606E031
:1049C0002148815D2046FFF7A9F8701CC6B2042E6D
:1049D000F6D329462046FFF7FBF82046FFF72AFAD0
:1049E000A28AF03291B2E06806F0F0FC1748CDE9F7
:1049F00000504323164A1748E16800680DF066FB33
:104A00002046FEF72DFEA07AFF2802DAA07A401C8D
:104A1000A072A07A062803DAA17A0120884000E07B
:104A20003C2000EB4001C1EBC0104FF6FF7101EAE2
:104A3000C00808F2F3104FF4FA7190FBF1F0E08235
:104A40003846BDE8FC870000F4000020A0370108CC
:104A5000A4370108F8000020427A8A4203D041724C
:104A600000228272C282704770B5054600BF45B908
:104A700031A340F2D62238A13BA0FDF79FFF00BF33
:104A8000FEE700BF00BF95F8350000F0010040B917
:104A900029A340F2D7223EA133A0FDF78FFF00BF2C
:104AA000FEE700BF2C6AA88DB0F5107F02DA4FF048
:104AB000FF3070BD4CB9402004F06EFB044614B9C1
:104AC0004FF0FF30F5E72C621DE000BFE06840B119
:104AD00019A34FF43C7237A123A0FDF76FFF00BF6D
:104AE000FEE700BF00BF606840B113A340F2F122AF
:104AF00036A11DA0FDF762FF00BFFEE700BF207AD0
:104B000008B1FEF707FD40212046FBF7E0FBFEF76A
:104B10003FFF10B14FF0FF30CBE701202072284655
:104B2000FEF72CFE06462EB1284600F059F84FF04D
:104B3000FF30BEE73046BCE72E2E5C6C7769705CB8
:104B40007372635C636F72655C697076345C646811
:104B500063702E63000000006E6574696620213D5D
:104B6000204E554C4C000000417373657274696FA0
:104B70006E22257322206661696C65642061742051
:104B80006C696E6520256420696E2025730A00001B
:104B90006E65746966206973206E6F742075702C61
:104BA000206F6C64207374796C6520706F72743F31
:104BB000000000007062756620705F6F757420776A
:104BC00061736E2774206672656564007265706C2F
:104BD00079207761736E27742066726565640000C2
:104BE00070B5054600BF45B912A340F2425219A163
:104BF0001FA0FDF7E3FE00BFFEE700BF2C6A002CFC
:104C000016D000BF606840B10AA340F24F5222A103
:104C100017A0FDF7D3FE00BFFEE700BF002120462E
:104C2000FFF71AFF207A18B1FEF774FC00202072FB
:104C300070BD00002E2E5C6C7769705C7372635CD3
:104C4000636F72655C697076345C646863702E6350
:104C500000000000646863705F73746F703A206EC8
:104C60006574696620213D204E554C4C00000000C3
:104C7000417373657274696F6E22257322206661B9
:104C8000696C6564206174206C696E652025642000
:104C9000696E2025730A00007265706C7920776157
:104CA000736E27742066726565640000014661B109
:104CB000086A50B10A6A507A0A2802D0507A052848
:104CC00001D1012070470020FCE70020FAE770B511
:104CD00005462C6A607A012805D0607A0A2802D03D
:104CE000607A052813D12846FFF7CCFD618B228C12
:104CF000881A00EBD0710122B2EB610F07DC618BE7
:104D0000228C881A00EBD071C1F34F01A18370BDD2
:104D100070B505462C6A607A012808D0607A0A28A6
:104D200005D0607A052802D0607A042813D128467D
:104D3000FFF7AEFB618C228C881A00EBD071012248
:104D4000B2EB610F07DC618C228C881A00EBD0710A
:104D5000C1F34F01E18370BD70B505462C6A607ADE
:104D60000C2802D0607A062803D12846FEF706FDFB
:104D70002BE0607A01280DD1A07A052803DC2846B3
:104D8000FFF7E4FD21E02846FFF726FD2846FEF761
:104D9000F5FC1AE0607A08280AD1A07A012803DC21
:104DA0002846FEF7FFF910E02846FEF72DF90CE043
:104DB000607A032809D1A07A022803DA2846FFF78F
:104DC000CBFB02E02846FEF7D9FC70BD2DE9F0418F
:104DD00005460E46002428E004EB44003A4951F809
:104DE000200000B304EB440001EB8000007AA842ED
:104DF00019D104EB4401344F07EB81014A6805EBFC
:104E00000511324F07EB011101F1100004EB4401D1
:104E10002D4F57F8213031469847002004EB4401CC
:104E20003A4642F82100601CC4B2042CD4DB0024B2
:104E300021E0AC4200D11CE004EB0410234901EB5B
:104E40000010807A022813D104EB041001EB00104B
:104E5000C07B05EB05111D4A02EB0111C97B88429D
:104E600006D1042005EB051102EB0111C87304E023
:104E700000BF601CC4B2042CDBDB00BF05EB0510D7
:104E8000124901EB0010C07B04281BDA05EB051169
:104E90000E4A02EB0111C97B0D4A52F821000DF0B8
:104EA000ABF8002005EB0511084A02EB0111C97BA4
:104EB000074A42F82100042005EB0511034A02EBE2
:104EC0000111C873BDE8F081E40A0020A4060020A7
:104ED0009406002010B5002404E0204600F006F8F7
:104EE000601CC4B2042CF8DB10BD000070B5054690
:104EF00005EB0510354901EB001400BF042D08DB5C
:104F000033A34FF47E7238A13EA0FDF757FD00BFDA
:104F1000FEE700BFA07A00284BD0012804D0022869
:104F200012D0032846D13BE000F092F82081022005
:104F3000A0720020E07201202073002060732846D8
:104F400000F0ACF806463FE0207B401EC0B2207364
:104F500028BB607B401CC0B26073042818D1E07A83
:104F6000401C02280DDAE07A401C304951F820003C
:104F700038B1E07A401CE072012020730020607399
:104F800008E000212846FFF721FF0020A0721BE067
:104F9000607B2073284600F081F8064600BF13E0CE
:104FA000206818B12068401E206008B90020A07257
:104FB0000AE009E000BF06A340F237421CA111A09D
:104FC000FDF7FCFC00BFFEE700BF70BDA40600209B
:104FD0002E2E5C6C7769705C7372635C636F7265B4
:104FE0005C646E732E630000617272617920696E79
:104FF000646578206F7574206F6620626F756E64CB
:1050000073000000417373657274696F6E222573BB
:1050100022206661696C6564206174206C696E652C
:1050200020256420696E2025730A000040000020BE
:10503000756E6B6E6F776E20646E735F7461626CF9
:105040006520656E7472792073746174653A00002E
:1050500070B500BFFBF710F985B2002411E004EB36
:1050600004100A4901EB0010807A022807D104EBF2
:10507000041001EB00100089A84200D1EAE7601C8F
:10508000C4B2042CEBDB284670BD0000A40600204F
:1050900000BF00BF00BF00BF704700002DE9F04F08
:1050A00089B083460BEB0B104D4901EB001500BF97
:1050B000E87A022808DB4BA340F2ED224FA155A06D
:1050C000FDF77CFC00BFFEE700BFE87A5B4951F8C2
:1050D000200040B900215846FFF778FE0020A87252
:1050E00009B0BDE8F08F05F11000FBF7FBF81230B6
:1050F00080B2002201460290104605F009FB0746E7
:10510000002F69D00020069007900890288902F0AF
:1051100038FFADF8180001208DF81A000002ADF834
:105120001C000C2206A9384606F096FA05F1100478
:10513000641E0C2600BF641CA0464FF0000A04E069
:105140000AF1010000F0FF0A641C20782E2802D02A
:1051500020780028F4D1A4EB080080B204905246D5
:105160003146384606F01CF9701C83B24146384679
:10517000049A06F043FB0AF10100304486B220781D
:105180000028D8D100223146384606F009F9701CB3
:1051900086B24FF48070ADF81400ADF816003346B7
:1051A000042205A9384606F029FBE97B0391352046
:1051B0000190E87A214901EB80000290204A03998E
:1051C00052F821003946DDE901320CF037FF814603
:1051D000384605F05FFF01E04FF0FF3948467FE7B2
:1051E000A40600202E2E5C6C7769705C7372635C81
:1051F000636F72655C646E732E630000646E73206F
:10520000736572766572206F7574206F66206172A7
:1052100072617900417373657274696F6E222573D0
:1052200022206661696C6564206174206C696E651A
:1052300020256420696E2025730A000040000020AC
:105240009406002002280ADA21B1054A0B6842F8C8
:10525000203004E0024A034B1B6842F820307047BC
:1052600040000020A037010810B5FFF733FE10BD45
:105270002DE9F04104460D4600BF05F0030040B1A2
:105280000BA34FF4CE7210A117A0FDF797FB00BF40
:10529000FEE700BF2E4607F07AFC0746A0680068CC
:1052A0003060A0680660384607F0A1FCBDE8F081D8
:1052B0002E2E5C6C7769705C7372635C636F7265D1
:1052C0005C6D656D702E63006D656D705F667265F7
:1052D000653A206D656D2070726F7065726C792013
:1052E000616C69676E656400417373657274696FA0
:1052F0006E22257322206661696C656420617420CA
:105300006C696E6520256420696E2025730A000093
:1053100070B5054607F03BFC0646A8680468002CFB
:1053200015D02068A968086000BF04F0030040B1F0
:1053300009A34FF4A4720EA116A0FDF73FFB00BF16
:10534000FEE700BF304607F052FC204670BD3046F5
:1053500007F04DFC0020F9E72E2E5C6C7769705C3D
:105360007372635C636F72655C6D656D702E630054
:105370006D656D705F6D616C6C6F633A206D656D0E
:10538000702070726F7065726C7920616C69676EE5
:1053900065640000417373657274696F6E222573D2
:1053A00022206661696C6564206174206C696E6599
:1053B00020256420696E2025730A00002DE9F0473E
:1053C00007460E463C4600BF44B957A34FF4BF7290
:1053D0005CA160A0FDF7F2FA00BFFEE700BF00206D
:1053E000606065786070042D11D1002600BF6CB13B
:1053F00007F0CDFB804694F9080010F10D0F01DD98
:1054000000202072404607F0F2FB00BF08E000BF1A
:1054100007F0BDFB80462672404607F0E8FB00BF60
:10542000606A20B1002204212046636A9847606ABE
:1054300020B1002211462046636A9847606A20B175
:10544000002202212046636A984704F1100007F009
:1054500045FC20B1002104F1100007F02FFC04F1FD
:10546000140007F03BFC20B1002104F1140007F008
:1054700025FC012D03D0042D01D0032D44D1207E25
:10548000C0F3800900BF207E20F00400207600BF1A
:10549000B9F1000F37D100BF206A40B922A340F212
:1054A000AD1236A12BA0FDF789FA00BFFEE700BFC1
:1054B000206A0671206A006800F10C0800BF4046AF
:1054C00007F048FC40B918A34FF4D87232A121A0CC
:1054D000FDF774FA00BFFEE700BF0020206200BFA6
:1054E00064B107F054FB824694F9080010F10D0FE7
:1054F00000DD2672504607F07AFB00BF00BF404631
:1055000007F01FFC00BF0CE000BF206A40B106A3FB
:1055100040F2B71227A10FA0FDF750FA00BFFEE737
:1055200000BFBDE8F08700002E2E5C6C7769705CD0
:105530007372635C6170695C6170695F6D73672E23
:1055400063000000636F6E6E20213D204E554C4C71
:1055500000000000417373657274696F6E222573D9
:1055600022206661696C6564206174206C696E65D7
:1055700020256420696E2025730A0000636F6E6E1B
:105580002D3E63757272656E745F6D736720213D89
:10559000204E554C4C000000696E61766C696420A9
:1055A0006F705F636F6D706C657465645F73656D5C
:1055B00000000000636F6E6E2D3E63757272656E43
:1055C000745F6D7367203D3D204E554C4C000000CC
:1055D00070B50546002412E004EB4400094901EBD4
:1055E000C000067D4EB104EB440001EBC0008068B2
:1055F000A84202D1204600F06BF9601CC4B20A2C0C
:10560000EADB70BD687000202DE9FE4F0646884633
:105610004FF00A09CA460A270024BB460020029020
:105620000190009000BF6BE004EB44006F4901EB78
:10563000C000057D0A2F02D10DB967B25EE0002DD2
:105640005CD000BF012D0AD0022D08DA68A340F219
:1056500025126FA17EA0FDF7B1F900BFFEE700BFE4
:105660005EB104EB4401614A02EBC1013068496854
:10567000884202D160B2BDE8FE8F012D2AD104EB31
:1056800044005A4951F8300088B104EB440001EB62
:10569000C000418A0298814230DB4FFA84FB04EB60
:1056A0004400524901EBC000408A029026E004EB1E
:1056B00044004E4901EBC000418A019881421DDB44
:1056C0004FFA84F904EB4400484901EBC000408ADA
:1056D000019013E0022D11DB04EB4400434901EB80
:1056E000C000418A0098814208DB4FFA84FA04EB3B
:1056F00044003E4901EBC000408A0090601CC4B2E7
:105700000A2C91DB08F0020020B90A2F05D108F01D
:10571000010010B94FF0FF30ADE70A2F01DAFCB2FB
:1057200034E0BAF10A0F12DA0AF0FF0400BF04EB0A
:1057300044002E4951F8300040B12DA340F26F12C1
:105740004DA143A0FDF73AF900BFFEE70EE0B9F125
:105750000A0F02DA09F0FF0408E0BBF10A0F02DACF
:105760000BF0FF0402E04FF0FF3084E700BF0A2C8B
:1057700008DB1FA340F2811245A135A0FDF71EF9F9
:1057800000BFFEE700BF204600F0A2F800BF0A2CD1
:1057900008DB17A340F285123DA12DA0FDF70EF9FD
:1057A00000BFFEE700BF00BF04EB44000F4901EB60
:1057B000C000007D40B10EA34FF4C37239A124A0F4
:1057C000FDF7FCF800BFFEE700BF36B104EB440173
:1057D000064A02EBC10130684860002004EB440136
:1057E000024A02EBC101488260B244E768700020BF
:1057F0002E2E5C6C7769705C7372635C636F72658C
:105800005C697076345C6574686172702E63000048
:105810007374617465203D3D204554484152505F8A
:1058200053544154455F50454E44494E47207C7C7B
:10583000207374617465203E3D20455448415250A8
:105840005F53544154455F535441424C450000005E
:10585000417373657274696F6E22257322206661CD
:10586000696C6564206174206C696E652025642014
:10587000696E2025730A00006172705F7461626C4A
:10588000655B695D2E71203D3D204E554C4C0000FE
:1058900069203C204152505F5441424C455F53497E
:1058A0005A4500006172705F7461626C655B695D8E
:1058B0002E7374617465203D3D204554484152501B
:1058C0005F53544154455F454D505459000000000A
:1058D00010B5044604EB44000C4951F8300060B1A7
:1058E00004EB4401094A52F8310005F0D3FB0020D3
:1058F00004EB4401054A42F83100002004EB440166
:10590000024A02EBC101087510BD0000687000205A
:10591000F0B587B007460D4600BF45B930A34FF438
:10592000227237A13AA0FDF749F800BFFEE700BF99
:105930007C682088B0F5807F08D12079062805D1C1
:105940006079042802D16088082804D0384605F020
:10595000A1FB07B0F0BDD4F80E000690A069059039
:10596000686808B9002607E005986968884201D18F
:10597000012000E0002006460EB1012000E00220D8
:10598000034604F1080206A9284600F06FFCE088EF
:10599000B0F5807F03D0B0F5007F19D113E086B158
:1059A000022206AB04F10800291DCDE90232CDE93F
:1059B000001005F12F0302462B31284600F00EFBA4
:1059C00000E000BF05E006A92846FDF7D5FA00E093
:1059D00000BF00BF384605F05DFB00BFB9E700001F
:1059E0002E2E5C6C7769705C7372635C636F72659A
:1059F0005C697076345C6574686172702E63000057
:105A00006E6574696620213D204E554C4C000000A7
:105A1000417373657274696F6E222573222066610B
:105A2000696C6564206174206C696E652025642052
:105A3000696E2025730A00002DE9FE4305460F46D6
:105A40001446A14600BF45B955A340F21B325CA1E4
:105A50005FA0FCF7B3FF00BFFEE700BF00BF47B980
:105A60004FA34FF4477264A159A0FCF7A7FF00BFF2
:105A7000FEE700BF00BF44B949A340F21D3261A157
:105A800053A0FCF79BFF00BFFEE700BF294620683C
:105A900001F0A4F810B1DFF87C8176E0207800F006
:105AA000F000E02816D101208DF8040000208DF8C8
:105AB00005005E208DF80600607800F07F008DF80C
:105AC0000700A0788DF80800E0788DF809000DF146
:105AD000040859E02068A9680840D5E9011211407E
